{
  "_format": "hh-sol-artifact-1",
  "contractName": "ChefCollection",
  "sourceName": "contracts/ChefCollection.sol",
  "abi": [
    {
      "inputs": [
        {
          "internalType": "address",
          "name": "collection_owner_",
          "type": "address"
        },
        {
          "internalType": "string",
          "name": "collection_uri_",
          "type": "string"
        }
      ],
      "stateMutability": "nonpayable",
      "type": "constructor"
    },
    {
      "inputs": [],
      "name": "DoesNotOwn",
      "type": "error"
    },
    {
      "inputs": [],
      "name": "NotAdmin",
      "type": "error"
    },
    {
      "anonymous": false,
      "inputs": [
        {
          "indexed": true,
          "internalType": "address",
          "name": "account",
          "type": "address"
        },
        {
          "indexed": true,
          "internalType": "address",
          "name": "operator",
          "type": "address"
        },
        {
          "indexed": false,
          "internalType": "bool",
          "name": "approved",
          "type": "bool"
        }
      ],
      "name": "ApprovalForAll",
      "type": "event"
    },
    {
      "anonymous": false,
      "inputs": [
        {
          "indexed": true,
          "internalType": "address",
          "name": "operator",
          "type": "address"
        },
        {
          "indexed": true,
          "internalType": "address",
          "name": "from",
          "type": "address"
        },
        {
          "indexed": true,
          "internalType": "address",
          "name": "to",
          "type": "address"
        },
        {
          "indexed": false,
          "internalType": "uint256[]",
          "name": "ids",
          "type": "uint256[]"
        },
        {
          "indexed": false,
          "internalType": "uint256[]",
          "name": "values",
          "type": "uint256[]"
        }
      ],
      "name": "TransferBatch",
      "type": "event"
    },
    {
      "anonymous": false,
      "inputs": [
        {
          "indexed": true,
          "internalType": "address",
          "name": "operator",
          "type": "address"
        },
        {
          "indexed": true,
          "internalType": "address",
          "name": "from",
          "type": "address"
        },
        {
          "indexed": true,
          "internalType": "address",
          "name": "to",
          "type": "address"
        },
        {
          "indexed": false,
          "internalType": "uint256",
          "name": "id",
          "type": "uint256"
        },
        {
          "indexed": false,
          "internalType": "uint256",
          "name": "value",
          "type": "uint256"
        }
      ],
      "name": "TransferSingle",
      "type": "event"
    },
    {
      "anonymous": false,
      "inputs": [
        {
          "indexed": false,
          "internalType": "string",
          "name": "value",
          "type": "string"
        },
        {
          "indexed": true,
          "internalType": "uint256",
          "name": "id",
          "type": "uint256"
        }
      ],
      "name": "URI",
      "type": "event"
    },
    {
      "inputs": [
        {
          "internalType": "address",
          "name": "account",
          "type": "address"
        },
        {
          "internalType": "uint256",
          "name": "id",
          "type": "uint256"
        }
      ],
      "name": "balanceOf",
      "outputs": [
        {
          "internalType": "uint256",
          "name": "",
          "type": "uint256"
        }
      ],
      "stateMutability": "view",
      "type": "function"
    },
    {
      "inputs": [
        {
          "internalType": "address[]",
          "name": "accounts",
          "type": "address[]"
        },
        {
          "internalType": "uint256[]",
          "name": "ids",
          "type": "uint256[]"
        }
      ],
      "name": "balanceOfBatch",
      "outputs": [
        {
          "internalType": "uint256[]",
          "name": "",
          "type": "uint256[]"
        }
      ],
      "stateMutability": "view",
      "type": "function"
    },
    {
      "inputs": [],
      "name": "contractURI",
      "outputs": [
        {
          "internalType": "string",
          "name": "",
          "type": "string"
        }
      ],
      "stateMutability": "view",
      "type": "function"
    },
    {
      "inputs": [
        {
          "internalType": "string",
          "name": "nft_uri_",
          "type": "string"
        },
        {
          "internalType": "string",
          "name": "recipe_uri_",
          "type": "string"
        },
        {
          "internalType": "uint256",
          "name": "amount_",
          "type": "uint256"
        }
      ],
      "name": "createRecipe",
      "outputs": [],
      "stateMutability": "nonpayable",
      "type": "function"
    },
    {
      "inputs": [
        {
          "internalType": "uint256",
          "name": "recipeId",
          "type": "uint256"
        }
      ],
      "name": "getRecipe",
      "outputs": [
        {
          "internalType": "string",
          "name": "",
          "type": "string"
        }
      ],
      "stateMutability": "view",
      "type": "function"
    },
    {
      "inputs": [
        {
          "internalType": "address",
          "name": "_newAdmin",
          "type": "address"
        }
      ],
      "name": "grantAdminAccess",
      "outputs": [],
      "stateMutability": "nonpayable",
      "type": "function"
    },
    {
      "inputs": [
        {
          "internalType": "address",
          "name": "account",
          "type": "address"
        },
        {
          "internalType": "address",
          "name": "operator",
          "type": "address"
        }
      ],
      "name": "isApprovedForAll",
      "outputs": [
        {
          "internalType": "bool",
          "name": "",
          "type": "bool"
        }
      ],
      "stateMutability": "view",
      "type": "function"
    },
    {
      "inputs": [
        {
          "internalType": "address",
          "name": "_nukedAdmin",
          "type": "address"
        }
      ],
      "name": "revokeAdminAccess",
      "outputs": [],
      "stateMutability": "nonpayable",
      "type": "function"
    },
    {
      "inputs": [
        {
          "internalType": "address",
          "name": "from",
          "type": "address"
        },
        {
          "internalType": "address",
          "name": "to",
          "type": "address"
        },
        {
          "internalType": "uint256[]",
          "name": "ids",
          "type": "uint256[]"
        },
        {
          "internalType": "uint256[]",
          "name": "amounts",
          "type": "uint256[]"
        },
        {
          "internalType": "bytes",
          "name": "data",
          "type": "bytes"
        }
      ],
      "name": "safeBatchTransferFrom",
      "outputs": [],
      "stateMutability": "nonpayable",
      "type": "function"
    },
    {
      "inputs": [
        {
          "internalType": "address",
          "name": "from",
          "type": "address"
        },
        {
          "internalType": "address",
          "name": "to",
          "type": "address"
        },
        {
          "internalType": "uint256",
          "name": "id",
          "type": "uint256"
        },
        {
          "internalType": "uint256",
          "name": "amount",
          "type": "uint256"
        },
        {
          "internalType": "bytes",
          "name": "data",
          "type": "bytes"
        }
      ],
      "name": "safeTransferFrom",
      "outputs": [],
      "stateMutability": "nonpayable",
      "type": "function"
    },
    {
      "inputs": [
        {
          "internalType": "address",
          "name": "operator",
          "type": "address"
        },
        {
          "internalType": "bool",
          "name": "approved",
          "type": "bool"
        }
      ],
      "name": "setApprovalForAll",
      "outputs": [],
      "stateMutability": "nonpayable",
      "type": "function"
    },
    {
      "inputs": [
        {
          "internalType": "bytes4",
          "name": "interfaceId",
          "type": "bytes4"
        }
      ],
      "name": "supportsInterface",
      "outputs": [
        {
          "internalType": "bool",
          "name": "",
          "type": "bool"
        }
      ],
      "stateMutability": "view",
      "type": "function"
    },
    {
      "inputs": [
        {
          "internalType": "uint256",
          "name": "recipeId",
          "type": "uint256"
        }
      ],
      "name": "uri",
      "outputs": [
        {
          "internalType": "string",
          "name": "",
          "type": "string"
        }
      ],
      "stateMutability": "view",
      "type": "function"
    }
  ],
  "bytecode": "0x608060405260006008553480156200001657600080fd5b5060405162001dfc38038062001dfc833981016040819052620000399162000196565b6040805160208101909152600081526200005381620000c1565b50600480546001600160a01b0319166001600160a01b038416908117909155336000908152600360209081526040808320805460ff199081166001908117909255948452922080549093169091179091558151620000b89160059190840190620000da565b505050620002d3565b8051620000d6906002906020840190620000da565b5050565b828054620000e89062000296565b90600052602060002090601f0160209004810192826200010c576000855562000157565b82601f106200012757805160ff191683800117855562000157565b8280016001018555821562000157579182015b82811115620001575782518255916020019190600101906200013a565b506200016592915062000169565b5090565b5b808211156200016557600081556001016200016a565b634e487b7160e01b600052604160045260246000fd5b60008060408385031215620001aa57600080fd5b82516001600160a01b0381168114620001c257600080fd5b602084810151919350906001600160401b0380821115620001e257600080fd5b818601915086601f830112620001f757600080fd5b8151818111156200020c576200020c62000180565b604051601f8201601f19908116603f0116810190838211818310171562000237576200023762000180565b8160405282815289868487010111156200025057600080fd5b600093505b8284101562000274578484018601518185018701529285019262000255565b82841115620002865760008684830101525b8096505050505050509250929050565b600181811c90821680620002ab57607f821691505b60208210811415620002cd57634e487b7160e01b600052602260045260246000fd5b50919050565b611b1980620002e36000396000f3fe608060405234801561001057600080fd5b50600436106100de5760003560e01c80634e1273f41161008c578063e8a3d48511610066578063e8a3d485146101cd578063e985e9c5146101d5578063f242432a14610211578063f8d12a411461022457600080fd5b80634e1273f4146101875780635fe6416e146101a7578063a22cb465146101ba57600080fd5b806321c73b70116100bd57806321c73b701461014c57806322b3127a146101615780632eb2c2d61461017457600080fd5b8062fdd58e146100e357806301ffc9a7146101095780630e89341c1461012c575b600080fd5b6100f66100f1366004611372565b610237565b6040519081526020015b60405180910390f35b61011c6101173660046113b5565b6102e0565b6040519015158152602001610100565b61013f61013a3660046113d9565b61037d565b604051610100919061143f565b61015f61015a366004611509565b61041f565b005b61015f61016f366004611576565b6104fc565b61015f610182366004611626565b610550565b61019a6101953660046116d0565b6105f2565b60405161010091906117d6565b61015f6101b5366004611576565b610730565b61015f6101c83660046117e9565b610781565b61013f610790565b61011c6101e3366004611825565b6001600160a01b03918216600090815260016020908152604080832093909416825291909152205460ff1690565b61015f61021f366004611858565b610822565b61013f6102323660046113d9565b6108bd565b60006001600160a01b0383166102ba5760405162461bcd60e51b815260206004820152602b60248201527f455243313135353a2062616c616e636520717565727920666f7220746865207a60448201527f65726f206164647265737300000000000000000000000000000000000000000060648201526084015b60405180910390fd5b506000908152602081815260408083206001600160a01b03949094168352929052205490565b60006001600160e01b031982167fd9b67a2600000000000000000000000000000000000000000000000000000000148061034357506001600160e01b031982167f0e89341c00000000000000000000000000000000000000000000000000000000145b8061037757507f01ffc9a7000000000000000000000000000000000000000000000000000000006001600160e01b03198316145b92915050565b600081815260066020526040902080546060919061039a906118bd565b80601f01602080910402602001604051908101604052809291908181526020018280546103c6906118bd565b80156104135780601f106103e857610100808354040283529160200191610413565b820191906000526020600020905b8154815290600101906020018083116103f657829003601f168201915b50505050509050919050565b3360009081526003602052604090205460ff1661044f57604051637bfa4b9f60e01b815260040160405180910390fd5b60085460009081526006602090815260409091208451610471928601906112bd565b5060085460009081526007602090815260409091208351610494928501906112bd565b50600454600880546104f7926001600160a01b03169160006104b583611908565b91905055836000368080601f0160208091040260200160405190810160405280939291908181526020018383808284376000920191909152506109a492505050565b505050565b3360009081526003602052604090205460ff1661052c57604051637bfa4b9f60e01b815260040160405180910390fd5b6001600160a01b03166000908152600360205260409020805460ff19166001179055565b6001600160a01b03851633148061056c575061056c85336101e3565b6105de5760405162461bcd60e51b815260206004820152603260248201527f455243313135353a207472616e736665722063616c6c6572206973206e6f742060448201527f6f776e6572206e6f7220617070726f766564000000000000000000000000000060648201526084016102b1565b6105eb8585858585610aca565b5050505050565b6060815183511461066b5760405162461bcd60e51b815260206004820152602960248201527f455243313135353a206163636f756e747320616e6420696473206c656e67746860448201527f206d69736d61746368000000000000000000000000000000000000000000000060648201526084016102b1565b6000835167ffffffffffffffff81111561068757610687611452565b6040519080825280602002602001820160405280156106b0578160200160208202803683370190505b50905060005b8451811015610728576106fb8582815181106106d4576106d4611923565b60200260200101518583815181106106ee576106ee611923565b6020026020010151610237565b82828151811061070d5761070d611923565b602090810291909101015261072181611908565b90506106b6565b509392505050565b3360009081526003602052604090205460ff1661076057604051637bfa4b9f60e01b815260040160405180910390fd5b6001600160a01b03166000908152600360205260409020805460ff19169055565b61078c338383610d3d565b5050565b60606005805461079f906118bd565b80601f01602080910402602001604051908101604052809291908181526020018280546107cb906118bd565b80156108185780601f106107ed57610100808354040283529160200191610818565b820191906000526020600020905b8154815290600101906020018083116107fb57829003601f168201915b5050505050905090565b6001600160a01b03851633148061083e575061083e85336101e3565b6108b05760405162461bcd60e51b815260206004820152602960248201527f455243313135353a2063616c6c6572206973206e6f74206f776e6572206e6f7260448201527f20617070726f766564000000000000000000000000000000000000000000000060648201526084016102b1565b6105eb8585858585610e32565b60608160016108cc3383610237565b1015610904576040517fcfb8d4b800000000000000000000000000000000000000000000000000000000815260040160405180910390fd5b6000838152600760205260409020805461091d906118bd565b80601f0160208091040260200160405190810160405280929190818152602001828054610949906118bd565b80156109965780601f1061096b57610100808354040283529160200191610996565b820191906000526020600020905b81548152906001019060200180831161097957829003601f168201915b505050505091505b50919050565b6001600160a01b038416610a205760405162461bcd60e51b815260206004820152602160248201527f455243313135353a206d696e7420746f20746865207a65726f2061646472657360448201527f730000000000000000000000000000000000000000000000000000000000000060648201526084016102b1565b33610a3a81600087610a3188610fd0565b6105eb88610fd0565b6000848152602081815260408083206001600160a01b038916845290915281208054859290610a6a908490611939565b909155505060408051858152602081018590526001600160a01b0380881692600092918516917fc3d58168c5ae7397731d063d5bbf3d657854427343f4c083240f7aacaa2d0f62910160405180910390a46105eb8160008787878761101b565b8151835114610b415760405162461bcd60e51b815260206004820152602860248201527f455243313135353a2069647320616e6420616d6f756e7473206c656e6774682060448201527f6d69736d6174636800000000000000000000000000000000000000000000000060648201526084016102b1565b6001600160a01b038416610ba55760405162461bcd60e51b815260206004820152602560248201527f455243313135353a207472616e7366657220746f20746865207a65726f206164604482015264647265737360d81b60648201526084016102b1565b3360005b8451811015610ccf576000858281518110610bc657610bc6611923565b602002602001015190506000858381518110610be457610be4611923565b602090810291909101810151600084815280835260408082206001600160a01b038e168352909352919091205490915081811015610c775760405162461bcd60e51b815260206004820152602a60248201527f455243313135353a20696e73756666696369656e742062616c616e636520666f60448201526939103a3930b739b332b960b11b60648201526084016102b1565b6000838152602081815260408083206001600160a01b038e8116855292528083208585039055908b16825281208054849290610cb4908490611939565b9250508190555050505080610cc890611908565b9050610ba9565b50846001600160a01b0316866001600160a01b0316826001600160a01b03167f4a39dc06d4c0dbc64b70af90fd698a233a518aa5d07e595d983b8c0526c8f7fb8787604051610d1f929190611951565b60405180910390a4610d358187878787876111c1565b505050505050565b816001600160a01b0316836001600160a01b03161415610dc55760405162461bcd60e51b815260206004820152602960248201527f455243313135353a2073657474696e6720617070726f76616c2073746174757360448201527f20666f722073656c66000000000000000000000000000000000000000000000060648201526084016102b1565b6001600160a01b03838116600081815260016020908152604080832094871680845294825291829020805460ff191686151590811790915591519182527f17307eab39ab6107e8899845ad3d59bd9653f200f220920489ca2b5937696c31910160405180910390a3505050565b6001600160a01b038416610e965760405162461bcd60e51b815260206004820152602560248201527f455243313135353a207472616e7366657220746f20746865207a65726f206164604482015264647265737360d81b60648201526084016102b1565b33610ea6818787610a3188610fd0565b6000848152602081815260408083206001600160a01b038a16845290915290205483811015610f2a5760405162461bcd60e51b815260206004820152602a60248201527f455243313135353a20696e73756666696369656e742062616c616e636520666f60448201526939103a3930b739b332b960b11b60648201526084016102b1565b6000858152602081815260408083206001600160a01b038b8116855292528083208785039055908816825281208054869290610f67908490611939565b909155505060408051868152602081018690526001600160a01b03808916928a821692918616917fc3d58168c5ae7397731d063d5bbf3d657854427343f4c083240f7aacaa2d0f62910160405180910390a4610fc782888888888861101b565b50505050505050565b6040805160018082528183019092526060916000919060208083019080368337019050509050828160008151811061100a5761100a611923565b602090810291909101015292915050565b6001600160a01b0384163b15610d355760405163f23a6e6160e01b81526001600160a01b0385169063f23a6e619061105f908990899088908890889060040161197f565b6020604051808303816000875af192505050801561109a575060408051601f3d908101601f19168201909252611097918101906119c2565b60015b611150576110a66119df565b806308c379a014156110e057506110bb6119fb565b806110c657506110e2565b8060405162461bcd60e51b81526004016102b1919061143f565b505b60405162461bcd60e51b815260206004820152603460248201527f455243313135353a207472616e7366657220746f206e6f6e204552433131353560448201527f526563656976657220696d706c656d656e74657200000000000000000000000060648201526084016102b1565b6001600160e01b0319811663f23a6e6160e01b14610fc75760405162461bcd60e51b815260206004820152602860248201527f455243313135353a204552433131353552656365697665722072656a656374656044820152676420746f6b656e7360c01b60648201526084016102b1565b6001600160a01b0384163b15610d355760405163bc197c8160e01b81526001600160a01b0385169063bc197c81906112059089908990889088908890600401611a85565b6020604051808303816000875af1925050508015611240575060408051601f3d908101601f1916820190925261123d918101906119c2565b60015b61124c576110a66119df565b6001600160e01b0319811663bc197c8160e01b14610fc75760405162461bcd60e51b815260206004820152602860248201527f455243313135353a204552433131353552656365697665722072656a656374656044820152676420746f6b656e7360c01b60648201526084016102b1565b8280546112c9906118bd565b90600052602060002090601f0160209004810192826112eb5760008555611331565b82601f1061130457805160ff1916838001178555611331565b82800160010185558215611331579182015b82811115611331578251825591602001919060010190611316565b5061133d929150611341565b5090565b5b8082111561133d5760008155600101611342565b80356001600160a01b038116811461136d57600080fd5b919050565b6000806040838503121561138557600080fd5b61138e83611356565b946020939093013593505050565b6001600160e01b0319811681146113b257600080fd5b50565b6000602082840312156113c757600080fd5b81356113d28161139c565b9392505050565b6000602082840312156113eb57600080fd5b5035919050565b6000815180845260005b81811015611418576020818501810151868301820152016113fc565b8181111561142a576000602083870101525b50601f01601f19169290920160200192915050565b6020815260006113d260208301846113f2565b634e487b7160e01b600052604160045260246000fd5b601f8201601f1916810167ffffffffffffffff8111828210171561148e5761148e611452565b6040525050565b600082601f8301126114a657600080fd5b813567ffffffffffffffff8111156114c0576114c0611452565b6040516114d7601f8301601f191660200182611468565b8181528460208386010111156114ec57600080fd5b816020850160208301376000918101602001919091529392505050565b60008060006060848603121561151e57600080fd5b833567ffffffffffffffff8082111561153657600080fd5b61154287838801611495565b9450602086013591508082111561155857600080fd5b5061156586828701611495565b925050604084013590509250925092565b60006020828403121561158857600080fd5b6113d282611356565b600067ffffffffffffffff8211156115ab576115ab611452565b5060051b60200190565b600082601f8301126115c657600080fd5b813560206115d382611591565b6040516115e08282611468565b83815260059390931b850182019282810191508684111561160057600080fd5b8286015b8481101561161b5780358352918301918301611604565b509695505050505050565b600080600080600060a0868803121561163e57600080fd5b61164786611356565b945061165560208701611356565b9350604086013567ffffffffffffffff8082111561167257600080fd5b61167e89838a016115b5565b9450606088013591508082111561169457600080fd5b6116a089838a016115b5565b935060808801359150808211156116b657600080fd5b506116c388828901611495565b9150509295509295909350565b600080604083850312156116e357600080fd5b823567ffffffffffffffff808211156116fb57600080fd5b818501915085601f83011261170f57600080fd5b8135602061171c82611591565b6040516117298282611468565b83815260059390931b850182019282810191508984111561174957600080fd5b948201945b8386101561176e5761175f86611356565b8252948201949082019061174e565b9650508601359250508082111561178457600080fd5b50611791858286016115b5565b9150509250929050565b600081518084526020808501945080840160005b838110156117cb578151875295820195908201906001016117af565b509495945050505050565b6020815260006113d2602083018461179b565b600080604083850312156117fc57600080fd5b61180583611356565b91506020830135801515811461181a57600080fd5b809150509250929050565b6000806040838503121561183857600080fd5b61184183611356565b915061184f60208401611356565b90509250929050565b600080600080600060a0868803121561187057600080fd5b61187986611356565b945061188760208701611356565b93506040860135925060608601359150608086013567ffffffffffffffff8111156118b157600080fd5b6116c388828901611495565b600181811c908216806118d157607f821691505b6020821081141561099e57634e487b7160e01b600052602260045260246000fd5b634e487b7160e01b600052601160045260246000fd5b600060001982141561191c5761191c6118f2565b5060010190565b634e487b7160e01b600052603260045260246000fd5b6000821982111561194c5761194c6118f2565b500190565b604081526000611964604083018561179b565b8281036020840152611976818561179b565b95945050505050565b60006001600160a01b03808816835280871660208401525084604083015283606083015260a060808301526119b760a08301846113f2565b979650505050505050565b6000602082840312156119d457600080fd5b81516113d28161139c565b600060033d11156119f85760046000803e5060005160e01c5b90565b600060443d1015611a095790565b6040516003193d81016004833e81513d67ffffffffffffffff8160248401118184111715611a3957505050505090565b8285019150815181811115611a515750505050505090565b843d8701016020828501011115611a6b5750505050505090565b611a7a60208286010187611468565b509095945050505050565b60006001600160a01b03808816835280871660208401525060a06040830152611ab160a083018661179b565b8281036060840152611ac3818661179b565b90508281036080840152611ad781856113f2565b9897505050505050505056fea26469706673582212201baa2149dc14693d0fe0fcd9d9f983d4188d74456f8f4f66ed7bbbd3738f625e64736f6c634300080b0033",
  "linkReferences": {},
  "deployedLinkReferences": {}
}